:020000040000fa
:080000000002040000000000f2
:020000040000fa
:0400080048060000a6
:020000040000fa
:04000c00b00200003e
:020000040000fa
:04001000b602000034
:020000040000fa
:04001400bc0200002a
:020000040000fa
:04001800c202000020
:020000040000fa
:04001c00c802000016
:020000040000fa
:04002000480600008e
:020000040000fa
:04002400480600008a
:020000040000fa
:040028004806000086
:020000040000fa
:04002c004806000082
:020000040000fa
:04003000480600007e
:020000040000fa
:04003400480600007a
:020000040000fa
:040038004806000076
:020000040000fa
:04003c004806000072
:020000040000fa
:04004000480600006e
:020000040000fa
:04004400480600006a
:020000040000fa
:04004800fc34000084
:020000040000fa
:04004c004806000062
:020000040000fa
:04005000480600005e
:020000040000fa
:04005400480600005a
:020000040000fa
:040058004806000056
:020000040000fa
:04005c004806000052
:020000040000fa
:04006000480600004e
:020000040000fa
:04006400480600004a
:020000040000fa
:040068000803000089
:020000040000fa
:04006c00f802000096
:020000040000fa
:04007000480600003e
:020000040000fa
:04007400480600003a
:020000040000fa
:040078004806000036
:020000040000fa
:04007c004806000032
:020000040000fa
:04008000480600002e
:020000040000fa
:04008400480600002a
:020000040000fa
:040088004806000026
:020000040000fa
:04008c004806000022
:020000040000fa
:04009000480600001e
:020000040000fa
:04009400480600001a
:020000040000fa
:040098004806000016
:020000040000fa
:04009c004806000012
:020000040000fa
:0400a000480600000e
:020000040000fa
:0400a400480600000a
:020000040000fa
:0400a8004806000006
:020000040000fa
:0400ac004806000002
:020000040000fa
:0400b00048060000fe
:020000040000fa
:0400b40048060000fa
:020000040000fa
:0400b80048060000f6
:020000040000fa
:0400bc0048060000f2
:020000040000fa
:0400c00048060000ee
:020000040000fa
:0400c40048060000ea
:020000040000fa
:0400c80048060000e6
:020000040000fa
:0400cc0048060000e2
:020000040000fa
:0400d00048060000de
:020000040000fa
:0400d40048060000da
:020000040000fa
:0400d80048060000d6
:020000040000fa
:0400dc0048060000d2
:020000040000fa
:0400e00048060000ce
:020000040000fa
:0400e40048060000ca
:020000040000fa
:0400e80048060000c6
:020000040000fa
:0400ec0048060000c2
:020000040000fa
:0400f00048060000be
:020000040000fa
:0400f40048060000ba
:020000040000fa
:0400f80048060000b6
:020000040000fa
:0400fc0048060000b2
:020000040000fa
:0401000048060000ad
:020000040000fa
:0401040048060000a9
:020000040000fa
:0401080048060000a5
:020000040000fa
:04010c0048060000a1
:020000040000fa
:04011000480600009d
:020000040000fa
:040114004806000099
:020000040000fa
:040118004806000095
:020000040000fa
:04011c004806000091
:020000040000fa
:04012000480600008d
:020000040000fa
:040124004806000089
:020000040000fa
:040128004806000085
:020000040000fa
:04012c004806000081
:020000040000fa
:04013000480600007d
:020000040000fa
:040134004806000079
:020000040000fa
:040138004806000075
:020000040000fa
:04013c004806000071
:020000040000fa
:04014000480600006d
:020000040000fa
:040144004806000069
:020000040000fa
:040148004806000065
:020000040000fa
:04014c004806000061
:020000040000fa
:04015000480600005d
:020000040000fa
:040154004806000059
:020000040000fa
:040158004806000055
:020000040000fa
:04015c004806000051
:020000040000fa
:04016000480600004d
:020000040000fa
:040164004806000049
:020000040000fa
:0402080048060000a4
:020000040000fa
:04020c00da02000012
:020000040000fa
:04021000e002000008
:020000040000fa
:04021400e6020000fe
:020000040000fa
:04021800ec020000f4
:020000040000fa
:04021c00f2020000ea
:020000040000fa
:04022000480600008c
:020000040000fa
:040224004806000088
:020000040000fa
:040228004806000084
:020000040000fa
:04022c004806000080
:020000040000fa
:04023000480600007c
:020000040000fa
:040234004806000078
:020000040000fa
:040238004806000074
:020000040000fa
:04023c004806000070
:020000040000fa
:04024000480600006c
:020000040000fa
:040244004806000068
:020000040000fa
:040248004806000064
:020000040000fa
:04024c004806000060
:020000040000fa
:04025000480600005c
:020000040000fa
:040254004806000058
:020000040000fa
:040258004806000054
:020000040000fa
:04025c004806000050
:020000040000fa
:04026000480600004c
:020000040000fa
:040264004806000048
:020000040000fa
:040268004806000044
:020000040000fa
:04026c004806000040
:020000040000fa
:04027000480600003c
:020000040000fa
:040274004806000038
:020000040000fa
:040278004806000034
:020000040000fa
:04027c004806000030
:020000040000fa
:04028000480600002c
:020000040000fa
:040284004806000028
:020000040000fa
:040288004806000024
:020000040000fa
:04028c004806000020
:020000040000fa
:04029000480600001c
:020000040000fa
:040294004806000018
:020000040000fa
:040298004806000014
:020000040000fa
:04029c004806000010
:020000040000fa
:0402a000480600000c
:020000040000fa
:0402a4004806000008
:020000040000fa
:0402a8004806000004
:020000040000fa
:0402ac004806000000
:020000040000fa
:0402b00048060000fc
:020000040000fa
:0402b40048060000f8
:020000040000fa
:0402b80048060000f4
:020000040000fa
:0402bc0048060000f0
:020000040000fa
:0402c00048060000ec
:020000040000fa
:0402c40048060000e8
:020000040000fa
:0402c80048060000e4
:020000040000fa
:0402cc0048060000e0
:020000040000fa
:0402d00048060000dc
:020000040000fa
:0402d40048060000d8
:020000040000fa
:0402d80048060000d4
:020000040000fa
:0402dc0048060000d0
:020000040000fa
:0402e00048060000cc
:020000040000fa
:0402e40048060000c8
:020000040000fa
:0402e80048060000c4
:020000040000fa
:0402ec0048060000c0
:020000040000fa
:0402f00048060000bc
:020000040000fa
:0402f40048060000b8
:020000040000fa
:0402f80048060000b4
:020000040000fa
:0402fc0048060000b0
:020000040000fa
:0403000048060000ab
:020000040000fa
:0403040048060000a7
:020000040000fa
:0403080048060000a3
:020000040000fa
:04030c00480600009f
:020000040000fa
:04031000480600009b
:020000040000fa
:040314004806000097
:020000040000fa
:040318004806000093
:020000040000fa
:04031c00480600008f
:020000040000fa
:04032000480600008b
:020000040000fa
:040324004806000087
:020000040000fa
:040328004806000083
:020000040000fa
:04032c00480600007f
:020000040000fa
:04033000480600007b
:020000040000fa
:040334004806000077
:020000040000fa
:040338004806000073
:020000040000fa
:04033c00480600006f
:020000040000fa
:04034000480600006b
:020000040000fa
:040344004806000067
:020000040000fa
:040348004806000063
:020000040000fa
:04034c00480600005f
:020000040000fa
:04035000480600005b
:020000040000fa
:040354004806000057
:020000040000fa
:040358004806000053
:020000040000fa
:04035c00480600004f
:020000040000fa
:04036000480600004b
:020000040000fa
:040364004806000047
:020000040000fa
:100400006f8920000e3f24000e01880000000000cc
:10041000000020000000e000020032000001200087
:10042000200288000c00070020fc220001002000b0
:1004300011000700000020000000e0000200320070
:100440000000020000000000fa2b02000000000083
:100450000040da000000fe004440a90060092000ce
:100460000000e0000300320000002000a00188002e
:100470004440a80000000600910188008000780038
:100480000000eb0015003700e280400032a0b4000d
:100490009101ba00e280400032a0b4009102ba009b
:1004a000e280400032a0b4000002eb00472bde00e7
:1004b000f507b200602ce10004003a000059eb009f
:1004c0008301e900fdff3e00040037006128e100e0
:1004d000010032000082eb000b00070011c3ba00dc
:1004e0001101ba000604e00003003a000200e00037
:1004f000e5ff3a0000000600f607b200960188000a
:1005000082007800f5ff37003159ba008301e90015
:100510000c0032002159ba008301e90008003200c2
:100520000400e00003003a00e280400032a0b40082
:10053000f5ff370011d9ba008301e900faff3a004c
:100540008100e800e180400032a0b4000000060015
:100550001003040000000000360304000000000047
:100560000000fa008020a900ffff37000000fa0019
:100570008060a900ffff37000000fa008040a9005a
:10058000ffff37000000fa008080a900ffff37005e
:100590000000fa0080a0a90081e3a9008de3a90072
:1005a0000000000081e3a8008de3a8000080fa00ad
:1005b000004006000000fa008020a900ffff37007d
:1005c0000000fa008060a900ffff37000000fa0079
:1005d0008040a900ffff37000000fa008080a900da
:1005e000ffff37000000fa0080a0a900ffff3700de
:1005f000801f78000000fa001000200020448800ce
:100600008620a9000080fa004f0078000040060014
:100610000000fa008600a9000080fa0000400600f1
:100620000200fa00000f78001e0078008000eb0046
:10063000010878001e0078008000eb00110098008f
:100640000742a9000782a800d005200020108800da
:100650000a22ef000c22ef0007e2a8009620a80073
:100660008620a9000080fa00000006000400fa00bd
:100670001007980030448000cf80de004201200047
:1006800003002000820f5000838f58007e013e003f
:1006900000600100140037001e0037002200370000
:1006a0002e00370048003700570037007000370031
:1006b0007e003700960037009a003700a700370009
:1006c000b5003700b9003700d6003700e800370022
:1006d000ec003700f5003700f90037000301370060
:1006e0000a013700100137001e009000100078004a
:1006f000e10f5000040032001e009000100078004e
:10070000e20f500041013a00100020003044880000
:100710005d0137000602a800304480000000e800b8
:10072000304488005801370020448000e10f500019
:1007300038013a008428ef00304480000000e800cf
:10074000304488001e00900010009000300090009f
:1007500000004000101088004b013700204480004a
:10076000e10f50002d013a008428ef004110800075
:1007700000002800008060000000e0000900320056
:1007800040448000e20f500003003c0020012000a4
:10079000304488003c0137000001200030448800cc
:1007a000390137008828ef001e00900010009000eb
:1007b0002000900010108800304480000080e80085
:1007c000304488003001370020448000e10f5000a1
:1007d00014013a008428ef00411080000000280036
:1007e000008060000000e0000300320000012000f3
:1007f0003044880024013700304480000000e800c5
:10080000304488002001370020448000e10f500070
:1008100006013a008428ef00411080000000280003
:10082000008060000000e0000300320000012000b2
:1008300030448800140137001e009000100078003a
:10084000e10f500003003a00304480000000e8004f
:10085000304488001e00900010007800e20f500025
:10086000f4003a0080002000304488000601370080
:100870001e0090001000900090007800504480000e
:100880000000400000804000100078001010880038
:10089000304480000000e80030448800504480006c
:1008a0000000e80050448800f70037002044800032
:1008b000e10f5000e1003a008428ef00304480004e
:1008c0000000e9003044880041108000000028004a
:1008d000008060000000e000030032000001200002
:1008e00030448800e80037005044800080007800e1
:1008f0001e0090001000900010009000808f5000ab
:10090000d0003a00e000200030448800de003700cc
:100910000622a800304480000000e800304488002f
:10092000d900370020448000e10f5000c7003a0092
:100930008428ef00304480000000e8003044880044
:100940001e00900010009000300090000000400059
:100950000000e80010108800cb0037002044800021
:10096000e10f5000bb003a008428ef0030448000c3
:100970000000e8003044880041108000000028009a
:10098000008060000000e000b400320000012000a0
:1009900030448800bc0037000662a8003044800064
:1009a0000000e80030448800b70037002044800091
:1009b000e10f5000ab003a008428ef003044800083
:1009c0000000e800304488001e00900010009000f5
:1009d00090007800504480000000400000804000fb
:1009e0000110800001087800504480000000e800f9
:1009f0005044880050448000800078001e00900021
:100a00001000900010009000808f500002003a000b
:100a100006a2a8000100370006a2a9000682a800cd
:100a20009900370020448000e10f50008f003a0009
:100a30008428ef0050448000800078001e00900061
:100a40001000900010009000808f500004003a00c9
:100a5000304480000000e800304488008a003700fd
:100a6000304480000080e900304488008600370070
:100a70000642a800304480000000e80030448800ae
:100a80008100370020448000e10f500079003a00d7
:100a90008428ef008628ef008a28ef001e009000cf
:100aa0008000eb0001087800770037000642a800bc
:100ab000304480000000e8003044880072003700b5
:100ac00020448000e10f50006c003a008428ef00c1
:100ad0008628ef008828ef008a28ef001e0090008b
:100ae0008080eb0001087800670037000642a8000c
:100af000304480000000e80030448800404480001a
:100b00000000e800404488005f0037002044800077
:100b1000e10f50005b003a008428ef008628ef00c8
:100b20008a28ef00580037000642a80000000000a5
:100b300030048000620060000000e000fcff320032
:100b40000000000030048000620060000000e0004f
:100b5000fcff3a0010002000000f7800180037005a
:100b60000622a8000000000030048000620060003f
:100b70000000e000fcff32000000000030048000b4
:100b8000620060000000e000fcff3a00000a200064
:100b900010108800000000004110800000002400b8
:100ba000008060000000e000fbff3a004010800081
:100bb0004f00de00004078000080fb00000f78004e
:100bc0001e0078000000e000e5ff3a000642a800a1
:100bd0000000000030048000620060000000e000bf
:100be000fcff320000000000300480006200600062
:100bf0000000e000fcff3a008428ef00e000200045
:100c000030448800000000001f0037000000000092
:100c10001d003700000000001b003700000000002e
:100c20001900370000000000170037000000000026
:100c3000150037000000000013003700000000001e
:100c400011003700000000000f0037000000000016
:100c50000d003700000000000b003700000000000e
:100c60000900370000000000070037000000000006
:100c700005003700000000000300370000000000fe
:100c800001003700000000000080fa0000000600ac
:100c90000040da000000fe000a00fa00e20f5000f7
:100ca00020003e00e0398200e10f500006003200d3
:100cb000802320004523200023232000042320003c
:100cc0000000e00004003a008022200045222000bd
:100cd00023222000042220000600280014036300c1
:100ce00003003a000608780000002800140a70008b
:100cf00013a8a30001003a0013a0a000020078008e
:100d0000050037001388a300feff32003102fb000c
:100d1000840a78000000e9000000e000f9ff3a00d2
:100d20000800370033002000b3bf9f00c0bf9f0002
:100d3000d1bf9f00e2bf9f006a8057005a0807009a
:100d40006fb99700020078000080fa0000000600ea
:100d500003f0a200889fbe008a9fbe008c1f78000f
:100d600080010700870133006450e1004f0032002a
:100d70006420e1005200320003826c0007003b0057
:100d80000905d0000306d000820f54000c065d0058
:100d90000200390002003200890178000306780061
:100da0008582550004003d000003fd008103fd0025
:100db0008502ea008b854200840f720002003b002e
:100dc00060001000e08018006011b8000005eb0022
:100dd0007a28e1000a00390006007800c75ddd00ce
:100de000f707b200878075002d00370082817100ff
:100df0000a017800610560008180d1000080d30085
:100e00008502e900f9ff3b000604400087844800a2
:100e100002003b0060041400e0841c000988a30069
:100e2000070032008a8171008281710061016400d3
:100e30008904d1000884d3008b05e800170037002f
:100e40000978a30013003a000b00e00013003400ff
:100e50008b05e9000804440089844c000a447400ae
:100e60000978a3000d003a000b00e00007003400f1
:100e70008b05e9000804440089844c0001003a0015
:100e80000b0020000978a300f7ff32000001eb00ff
:100e900002003700828171000a017800f600070025
:100ea0000cf0a70001f0a0003f0137006420e10032
:100eb00002003a00838f6c003f0133000801be003e
:100ec0000200be0038013700889fbe008a9fbe0026
:100ed0008c9fbe000004be000d0107000800be008c
:100ee000890678006420e10008003900040032001f
:100ef0000160a00012022000a244880053003700c5
:100f000091fc2300b0fd20004e0037000006eb00ee
:100f100009f0a10003f82300020020000800be0031
:100f2000900007000600340001f8230000002000b4
:100f30000801be00490007000004be002c0020008c
:100f40000800be0093e82300320a23008500070052
:100f5000120034000801be00d1fd2300703d2b00bb
:100f60007cff07000005be00b3f32300f27a2600e1
:100f70000800be001301070003f823000200200050
:100f800073ff07000801be0072ff07000a01be00e0
:100f9000320007000004be000c06e8000800be0096
:100fa00001f0a10002002000039823006d0007005b
:100fb0000800be00160035000801be000101070050
:100fc0000005be0032cd2c0043fb230061ff07006b
:100fd000809fbe001269280003d52b000a00be00c6
:100fe000f8000700620f210013ef2b0059ff0700e4
:100ff0000a01be00f30007004f01be001700070002
:101000000801be00ef0007000801be0051ff070005
:101010000c00e0000b0032000c10a70001f0a20051
:10102000b2fd200093fc23006260e1000400320066
:1010300022a9200063f023000c10a70063f823000e
:1010400044ff07000df0a70001f0a2004f06be000c
:101050004f05be004f04be0000000600889fbe0082
:101060008a9fbe008c1f7800be000700c5003300b9
:1010700003866c006450e1002e0032006420e10021
:10108000330032006150e1002f0032006120e100a6
:101090003100320085855500eb07b00009002000c3
:1010a00008042000050037000804440089844c002f
:1010b0000a0031000603430087834b000001530000
:1010c00081815b00f8ff33000203be000800a0002e
:1010d0000804440089844c00f6ff3900c639dd005d
:1010e0008301730001003200130020008904d10045
:1010f0000884d3000998a300050032000800a70067
:101100000300a0008904d1000884d3008b05e80007
:101110008904d1000884d3000001eb000281d200d1
:101120005500070001f0a1000cf0a70001f0a0009d
:101130009d0037006420e1009f0032000801be00de
:101140000200be00f7ff37006120e1009a00320084
:101150006000b800f3ff37000000200001f827000e
:10116000f0ff37001400200078023700f4ff2f0052
:10117000760237000001be00650007000470a7007a
:1011800003f0a1006509b100160032000d00350022
:101190006828e10006003500f0ff2f00f1ff27006e
:1011a0000300e00013003b000100280000000500e0
:1011b00000004000818048008502e900fcff3a0001
:1011c00008003700f88f420002003c008000eb006e
:1011d000000005008100d1000080d3008502e800f6
:1011e000fcff3a000300e00002003b00600010003a
:1011f000e0801800000006000001be004400070067
:101200000470a70003f0a10003f8a30013003a0044
:101210006509b10010003200090035006928e100bd
:101220000200350001002800000005000000400019
:10123000818048008502e900fcff3a0000000600ba
:10124000f88f4200050035008100d1000080d300f6
:101250008502e800fcff3a00000006008000eb0079
:10126000000005004f89de0082017800520237003d
:101270006011b800600237008100200061805500d5
:101280000b003d000b00200061fe2f000100e1007b
:101290001d00340082817100610164008904d10065
:1012a0000884d3000000e800faff3a007100200033
:1012b0006100640003007000020060000900320059
:1012c00061044400e0844c000988a5000500320058
:1012d0008b05e8006808e10002003a008904d100ab
:1012e0000884d300f20f20000258e10005003d0001
:1012f000c75ddd00f907b20089807500080078003d
:10130000000006000bf827008b00780000000500a5
:10131000c70ade00f107b200f50fb2000800320084
:10132000e1cf4200020032000170a000240005005d
:10133000810f700001003200040805004400050020
:10134000810f700002003a00140005008502e900d8
:101350000000400081c04800fcff3b000170a0007d
:10136000240005000004be00e9ff07000003be00e2
:101370000405be000200be00e5ff0700844f7500b3
:10138000000006000200be006450e10005003600c7
:101390006420e100020036000968a30001003a0061
:1013a0000800be000160a0004f0678004f05be0097
:1013b0004f04be0000000600f0ff2f00f1ff2700e1
:1013c000f9ff3700889fbe008a9fbe008c1f7800ff
:1013d000e4ff0700ebff330003866c006450e1007c
:1013e000240032006420e100270032006150e10057
:1013f000220032006120e100210032008b85420092
:10140000eb07b1000134b800003ab800080442000c
:1014100089844a00013ab8000030b8008880400052
:1014200009014a00040033000000400081804800a8
:10143000020149008b05e900c909dd008301700044
:101440000100320013002000c814de004814dd0043
:101450004709de001200b200c808de0008847000f0
:1014600085ff070001f0a1000cf0a70001f0a0002b
:10147000cdff37006120e100cfff32000801be0040
:101480000200be00f7ff37006150e100fcff3a00a8
:10149000c9ff37000c00fa00889fbe008a9fbe007b
:1014a0008c9fbe00afff07000206be0084057800d7
:1014b0000200be00020020007d01070005003a0086
:1014c0008b02b300120020007901070001003a00ee
:1014d000f8856d000c01be00c60007000800be00c4
:1014e0009b0032000b08a3009e003a000df0a700fd
:1014f0000be0a00009f0a7000bf0a00009f0a1008c
:101500000801be00bb0007000bf0a60095003200ea
:1015100001003c000bd0a0008acf7500b200330060
:101520006000b8006250e10099003900a1003e005f
:101530000b28a300a2003a000bf8a300060032001b
:101540000b58a300a70032000801be00a900070045
:101550000800be00940032000800be00e50007004d
:101560000004be00050578000bf0a7000b30a600b4
:101570000bf0a1005b079800324f200053f32300cb
:10158000f8fe070005003d000800be001200200024
:10159000c80107000004be000a05e9004a079800d8
:1015a0006150b9002fff0700008fbe000c01be0084
:1015b00084ff0700effe0700300798000100e000fd
:1015c00002003d0060001000e0801800f2ff2700dc
:1015d000820f5000e08f580064003e000c00be00f7
:1015e000e4fe070020079800f2072000820f500059
:1015f000e08f580005003c0012f82f00f3ff2f0089
:10160000820f5000838f580009003d000a00e0005f
:101610000300320001003c000201ea0002057800ec
:101620006000b800200798003a07980019003700ba
:101630003e0090006100b9000aff0700809fbe00d5
:101640000c00be004109dd004811de007208b10047
:10165000170107000005be001e01be0059ff07006c
:101660004f01be00bafd0700809fbe000c00be0007
:101670000a01be00b6fd07001e01be0051ff0700b3
:101680004f01be00b3fd07008221270013f32300a2
:101690004cff07000005be002e0090006100b9005d
:1016a000f0fe070001f0a2000c01be00a9fd07003a
:1016b0000006be000800be00a00107000c01be002d
:1016c00040ff07000a01be00a2fd0700809fbe0088
:1016d0004a0007002e0590000af0a7000a05ea005c
:1016e000050037000800be000801be0035ff0700f6
:1016f0000004be000c00be000801be000a00a700e6
:1017000030ff07000006be000a05d100f5ff3a00d1
:101710005e01900002e0a600030037000001be0059
:10172000360007004dfe07000004be004f00be005b
:101730007d0007000801be0022ff07003e01900067
:101740005c010700de0590000bf0a70001f0a2008d
:101750004f06be004f05be004f04be000080fa00d9
:101760000000060025000700f9ff370027000700ea
:101770006000b8000bd0a7000bc0a0000be0a700d2
:101780000bc0a2000bc0a70001f82700f0ff370034
:101790000df8a300020032001e0007001900070028
:1017a0000bf8a300eaff32000b30a70001f0a20003
:1017b000e7ff37000df8a300f9ff3a00f7ff370005
:1017c0000801be000b000700e6ff320001003c00ec
:1017d0000df0a2006000b8000df0a700090007009e
:1017e000dbff37000b000700f1ff2700f0ff2f00a1
:1017f000d7ff3700010007005afe370001f8230029
:101800000000050001f8270000000500200220006c
:101810000100370010022000a044880000000600ec
:10182000889fbe008a9fbe008c1f78000004be0007
:10183000b7fe07000478a30026003a006120e1000b
:101840002500320009f8a30025003a006420e100d9
:1018500021003200f507b1000508a30002003200a4
:1018600000004000818048006044b8000310200060
:10187000020020000000400081804800080544006c
:1018800089854c000a0541008b8549000a055000f6
:101890008b855800030033000a00be000204740068
:1018a000838474008301d1000281d300830f71000f
:1018b000f0ff3a008904d1000884d3006001490098
:1018c00082017800c1adde00fb07b0006afe0700b0
:1018d000b5fe37000960a0000800be00b2fe370068
:1018e00012022000a2448800f0ff2f00f1ff270021
:1018f000adfe37000003be0085fe07006220e10058
:10190000020032000600be0005000500e507b10038
:10191000f107b20004f023008480700007f0a700f4
:1019200001f0a00024000500889fbe008a9fbe0031
:101930008c9fbe000004be0075fe07000800be00bc
:101940006420e10048003e0055003200722127006b
:10195000132b240005fe070047003c000800be00d2
:10196000c2ec2800e32c2c00fefd070047003500e8
:101970000800be0001f0a10002002000033823008f
:10198000f8fd0700430035000800be00b2a32a009e
:1019900083fb23008bfe07000200200003f02300de
:1019a00001f0a70003f0a000eafc0700f1fd07002a
:1019b0000005be002bfe070001f0a2000006be00dd
:1019c0000200280013f323007efe07000801be007a
:1019d000e0fc0700809fbe000c00be00320828001b
:1019e000e3952b0077fe07004f01be00d9fc0700ee
:1019f0000006be000001be0072fe0700809fbe0010
:101a00004241250083b823006efe0700020020003b
:101a100003e82300cffc07000c01be0069fe0700ad
:101a20000006be004f00be00f2f92b00c3d4230015
:101a300064fe07000200200003f02300c5fc07003d
:101a40000c01be00c2fc07000001be000c00be007d
:101a500082fd07000200200003f02300bdfc070008
:101a600061014500930007004f06be004f05be0010
:101a70004f04be000000060001f82700000020000f
:101a800022022000a2448800f7ff37006000b8005f
:101a9000fbff370001f8230000002000f2ff3700b1
:101aa00009f8a300f0ff32006000b800eeff370035
:101ab000889fbe008a9fbe000003be0014fe070080
:101ac0008505780082815200020020006220e1003a
:101ad00004003a00f307b100040035007718e10074
:101ae000040035000600be00140037006000b80096
:101af0000f003700f50f2000faff2f008502d100fc
:101b00000a85d3008301e900fcff3b008184620069
:101b100000046500890f7400f2ff32008582ea003c
:101b20000a85ea008184620000046500d2fd070096
:101b300007f0a70001f0a0000081eb000200e00028
:101b40004f05be004f04be0000000600889fbe0087
:101b50008a9fbe00841f780002fe07004f007800b5
:101b600011003300f0ff2f00838f6c0006003b0054
:101b7000040565000a00a7000800370009f0a60068
:101b80001000200008003700820f5400838f5c0093
:101b9000030039001000200001003e00000020007a
:101ba00009f0a7000000ea004f05be004f04be0088
:101bb0000000e00000000600881f780003047800a1
:101bc0000300e00007003d0060001000e080180006
:101bd00060011900e081190002003b0001f02d00b6
:101be000030037000400070008f0a70001f0a00080
:101bf0004f04780000000600889fbe008a9fbe0048
:101c0000008270000402710004827100260032001c
:101c10000004be000200be006011b8006b09200085
:101c2000950220000182cf000a0039000541b10071
:101c30000082cf00070039000541b1000982cf00c2
:101c4000040039000541b1000882cf0001003900cd
:101c50000541b10005425200120032000a003b006b
:101c600082817100610164008100d1000080d30095
:101c70008984d3000884d3008b05e8000442e8007f
:101c8000f7ff3a00070037000804440089844c003d
:101c900000004800818048008b05e9000442e9000b
:101ca000f9ff3a0074fd07004f05be004f04be0067
:101cb000000006000003be0095fd07006220e10061
:101cc000020032000600be0000000600850241004e
:101cd000e30f20000328e10005003c00a3fe2f00d5
:101ce0000328e10007003d00050020000100370047
:101cf000f50f200020022000a04488006000b800fa
:101d000008003700130020008381520005003d00c9
:101d10008100d1000080d3008301e800fcff3a007d
:101d200005002000c72add00f107b20085807000a1
:101d300007f0a70001f0a00000000600889fbe0089
:101d40008a9fbe008c9fbe00eafe070085047800d3
:101d50000005be006420e10049003e006220e10071
:101d600003003200090035000bf8a30044003200e4
:101d70000bf8a3000800320010022000a0448800e5
:101d8000f0ff2f00f1ff27003d00370001f82f0082
:101d9000000020003a0037003d000700ecfb070080
:101da0000006be000a00be00324f200053f323009d
:101db000eefc0700060034000c00be0034000700f3
:101dc000e3fb07000006be000a00be000200370069
:101dd0008904e9000c00be002d00070079fd070012
:101de0002b000700dbfb07000001be000c00be005b
:101df0009afc07000005be000001be0071fd07004f
:101e00000006be00a2f32300430d2c00d1fb070007
:101e1000809fbe000c00be00d2e32700d3f02b0051
:101e200068fd07004f01be008cfc07000006be00e5
:101e30000a01be0063fd07000a01be00c5fb0700e2
:101e40000006be006148b90006fd07000005be009f
:101e500032082800e3952b005afd07000c01be0054
:101e6000bcfb07000006be000a00be0002002800fe
:101e700013f3230053fd07000c01be00b5fb070060
:101e80004f06be004f05be004f04be000000060016
:101e900003f0230002000500889fbe000004be007e
:101ea000050037000000fb008900780019000700da
:101eb000e10f400004003200384078000004e000e8
:101ec000f8ff3a000000eb004f04be0000000600df
:101ed000881f780021712400efff070000047800bc
:101ee00021712400a00020000a00070008007800eb
:101ef0004f047800000006000000fa0068815700d7
:101f0000cfb89700207124004e0007000080fa002f
:101f100000000600889fbe0001047800b800900011
:101f20008084eb000118a3003a00320018019000f1
:101f30000198a30002003a000200e00035003a00d8
:101f40000190a0003104980080047800f90fb200dd
:101f50000200e00002003a0028009000000c780027
:101f6000ea8f540005003a000178a30003003a000c
:101f700088007800d0002000e6ff070018009000dd
:101f8000d8009000810f50000b0032000000e800e4
:101f9000100498001800780009487800000ce80048
:101fa00011c0b3006073240001487800ea8f540028
:101fb00018003a00050037008800780009407800d2
:101fc0007a03070080047800120037003800900080
:101fd0000088a3000f00320018019000a8009000b4
:101fe000480090002cfb070098009000810f5000e3
:101ff00004003200380090000003b3003004980061
:102000008084eb000000eb00100498002800900092
:10201000000c7800090078004f04be0000000600a4
:10202000d0019000028151004240a9000300340019
:1020300010017800014978000208e80001007800ea
:10204000000006002f02b000889fbe008a9fbe00dd
:102050008c9fbe008e1f780080067800d1af9f0055
:1020600092b79f000007eb0044033700dfa89700fa
:102070008100e800d1af9f0051c2b300814f5000f2
:1020800003003a005fa897000006eb00110037003c
:10209000bd0090000000fb000168a30007003200b3
:1020a0000e017800800078000d007800dcff07004a
:1020b0000000e00005003a00300337008d00780092
:1020c00094ff0700e10f40002c0332000e07e800e8
:1020d0002a0337008000780030417800d3c2b30073
:1020e000834f51000c00320007003c00edc151004d
:1020f000834f51000a003200ebc14100834f510071
:102100000d003a000800370003c3b300834f5100ad
:1021100009003a00060037000c30a000edff370040
:102120000c00a000ebff37000c10a000e9ff370007
:102130000c20a000e7ff37000c18a30001003200bc
:102140000c00a1000c38a300010032000c20a100fb
:102150000200fb000003b100e90f50000c003e003c
:10216000010178000000eb006a00b900b201fb0039
:102170000303b10000804100820078009201fb005f
:102180000303b100e98f5100f7ff36000800370064
:102190000000eb00a3c2b300834f510004003a00db
:1021a0001fb197004200780092b79f008100e800bd
:1021b0008001eb00a3b79f00e2c2b300914f110072
:1021c0000c003a000ce0a00064415100d14f110016
:1021d0000300320001017800030278000900370093
:1021e0001fb29700c402780094b79f00a5b79f0064
:1021f0008100e80001017800090037006a22b90077
:102200000482410082007800b201fb000303b100a8
:10221000e98f5100f9ff3600a4b79f00f5ff3700a2
:10222000b2407800d2af9f00c3c6b30083cf500046
:10223000250032000f003c0032c6b30082cf5000b0
:10224000a000320004003c000104e000d002320093
:102250006b4151000f00370042c6b30082cf5000df
:10226000170032006541410082cf5000b3003a00b0
:102270001300370032c7b30082cf50001f00320076
:1022800007003c006441510082cf5000140032002e
:102290000241e80082cf5000a8003a001300370046
:1022a00052c7b30082cf5000ab00320063414100ff
:1022b00082cf5000a1003a00a1d79f000d00370047
:1022c000a1d79f00a6003700010120000c48a30001
:1022d00001003200010028000c867000d0ff37009a
:1022e000a1d79f000c60a0009d003700a1d79f00e0
:1022f0000c50a0000c70a00099003700a1d79f00df
:102300009fb39700c700780097b79f00b1b79f00b1
:102310000100e00002003a0029622400b9b79f00e2
:102320003fb197008000eb00010037008100e8001a
:10233000e2c178000304e000fcff3a00c1b79f004f
:102340002fb597000a00e00005003200cfb59700d6
:102350008b0f5500020031008a007800c1b79f0042
:10236000cfb097000004eb00810f50000100360051
:1023700001045000680666002b003a001100370087
:102380003d0090000068a300070032000e017800b5
:10239000010220000d00780021ff07000000e0008e
:1023a00006003a00060037008d0078000002200089
:1023b000d8fe0700e10f4000010032000e07e800e0
:1023c0000804e9000800e000edff3a000084eb009b
:1023d000150037003d0090000068a300090032009e
:1023e00008007800b000fb00000478000e017800bf
:1023f0000d0078000aff07000000e00008003a0026
:102400000f003700880078003100fb0001047800dd
:102410008d007800bffe0700e10f40000800320089
:102420000e07e80006003700acb79f0008067800ea
:102430003fb49700cfb497005fb59700efb5970012
:10244000090078008004e9000000e000e1ff3a00a4
:10245000b8b79f00c9b79f00dab79f00ebb79f00de
:102460000c0478002fb697000c00e0004302320005
:10247000110037003d0090000068a3000700320003
:102480000e017800010220000d007800e4fe070034
:102490000000e00006003a00060037008d007800da
:1024a000000220009bfe0700e10f40000100320007
:1024b0000e07e8000804e9000800e000edff3a001c
:1024c0002e0237009fb297004504780095b79f0011
:1024d000cfc4de00614db9000802be000a03be0091
:1024e0004822de00c828dd0004827000a4d79f00c7
:1024f0000c48a300090032000404e0000700320089
:10250000e14f420005003200b4d79f00c8d79f00ba
:1025100022002000c2b79f0003003700b8d79f00f9
:1025200013002000c3b79f0024fd2f000f024200bc
:102530000402e800b4b79f0081ff3700a1d79f00d5
:1025400025fd2f0085824700b5b79f0016002000ab
:10255000c6b79f007aff3700a1d79f000c0cb300cd
:102560008c007800010cb20032003a000c00e00050
:1025700005003d009fb097004105be004104be002c
:1025800091b79f00080037000c48a3000b003200f1
:102590001fb297004401be0094b79f000204be0022
:1025a0004fcdde008a057800b8b79f00c9b79f00fd
:1025b000dab79f00ebb79f00090037009fb4970080
:1025c000c900780099b79f00610ab900612bb90072
:1025d000b4b79f00c5b79f00d6b79f00e7b79f006d
:1025e0003fb49700cfb497005fb59700efb5970061
:1025f000e00f5400e08f5c00e00f5d00e08f5d00b5
:1026000022003d003c00b3006022b8006033b800f7
:102610000804520089845a000a055b008b855b0020
:10262000b8b79f00c9b79f00dab79f00ebb79f000c
:10263000160037000c00e00004003d001fb49700b6
:102640004803be004802be00050037000c48a30046
:10265000050032001fb497004802be006033b80086
:1026600098b79f00050037009fb49700c900780015
:1026700099b79f00610ab8006033b800b4b79f00f3
:10268000c5b79f00d6b79f00e7b79f00afb29700ce
:102690000500e0000d003a0016002000a6b79f00dc
:1026a0003fb49700cfb497005fb59700efb59700a0
:1026b000e00f5400e08f5c00e00f5d00e08f5d00f4
:1026c000020032008004eb00a9b79f000c057800df
:1026d0000a0cb2008ab79f0001042000810f550048
:1026e0003400320003003c000a00e0000800320021
:1026f00048003700010820008fb59700818f5500f2
:1027000014003200010c2000818f550041003a0076
:102710002263240011c0b3003202be003203be00a7
:102720003fb49700cfb497005fb59700efb597001f
:102730000440e10005c8e10006d0e10007d8e1004f
:10274000330039008140e800f4cf5000f2ff3a0036
:102750002f00370011c0b300040120000500200045
:102760006033b8003fb49700cfb497005fb59700cf
:10277000efb597000440e10005c8e10006d0e10094
:1027800007d8e10022003900490020000402d000ef
:102790008582d2000683d2008783d2008904e900b3
:1027a000faff3a008140e800f0cf5000edff3a0018
:1027b0001700370011c0b30084002000050020007e
:1027c0006033b8003fb49700cfb497005fb597006f
:1027d000efb597000440e10005c8e10006d0e10034
:1027e00007d8e1000a003900390020000402d000b7
:1027f0008582d2000683d2008783d2008904e90053
:10280000faff3a008140e800f5cf5000edff3a00b2
:10281000a1d79f002fd597008a00fb00afb5970086
:102820008b8f500002003d00abd79f0004003700a3
:102830002fb19700810f510001003d00a1b79f000b
:102840000000e00003003200e300660001003200f7
:102850000000e9000ce8a30006003200afb19700c9
:10286000830f5000020034000300500001003700c5
:102870000000eb002fd297008400fb008002eb00e9
:10288000f5af9f00810f500002003400810050001e
:10289000f1af9f000c28a3003c00320061016600ec
:1028a0000c18a3000f0032003d0090000068a30048
:1028b00006003200b10220000200e00001003200f8
:1028c0008180e8000e0178000d003700b002200082
:1028d0000200e000010032000080e8008d00780076
:1028e0000e0037000200e000100032003d009000b2
:1028f0000068a300070032000e01780001022000ea
:102900000d007800c6fd07000000e00006003a0058
:10291000060037008d007800000220007dfd0700d2
:10292000e10f4000010032000e07e8007fab970086
:102930000600e00052003200060478003d009000de
:102940000068a300070032000e0178000103200098
:102950000d007800b2fd07000000e00006003a001c
:10296000060037008d0078000003200069fd070095
:10297000e10f4000010032000e07e8000804e90002
:10298000eeff3a00f8af9f003d003700ffab970025
:102990000700e000160032000c38a30014003a00d3
:1029a000070478003d0090000068a3000700320093
:1029b0000e017800010220000d00780098fd07004c
:1029c0000000e00006003a00060037008d007800a5
:1029d000000220004ffd0700e10f4000010032001f
:1029e0000e07e8000804e900eeff3a00f8af9f0088
:1029f000610166000c18a3000f0032003d0090003a
:102a00000068a30006003200b10220000200e000ce
:102a1000010032008180e8000e0178000d003700cf
:102a2000b00220000200e000010032000080e80057
:102a30008d0078000e0037000200e0001000320028
:102a40003d0090000068a300070032000e017800ee
:102a5000010220000d00780071fd07000000e00079
:102a600006003a00060037008d00780000022000c2
:102a700028fd0700e10f4000010032000e07e800ca
:102a80002fb497000800e900c204dd00c9af9f0021
:102a90006301b90002057800baaf9f004300dd0072
:102aa000a162240081004000e1af9f009800370040
:102ab000afb597008b05e900abb79f00000420007d
:102ac0008fb09700808f50006800320003003c00f8
:102ad0000100e00008003200730037000008200009
:102ae0000fb19700800f51004c003200000c200005
:102af000800f51006c003a000c00e0001e003d0009
:102b0000efa997003304be002305be000802be00f3
:102b10000a03be003fb09700cfb097005fb19700a7
:102b2000efb1970091010700a0d79f000000fb00c4
:102b3000cf80de006109b9000802be000a03be00b2
:102b4000f30107003fb29700cfb297005fb3970041
:102b5000efb397000002520081825a0002035b002b
:102b600083835b00b4b79f00c5b79f00d6b79f00b3
:102b7000e7b79f00250037000c48a3001a00320079
:102b80003fb29700cfb297006fab97003604be00fc
:102b90002605be000801be000400be00f4b79f0079
:102ba00085bf9f00c2000700a0d79f000000fb0068
:102bb000cf80de000801be00cd0007007fb2970085
:102bc0008fba97000002520081825a000404be00ae
:102bd0006055b800b8b79f00c9b79f00dab79f002b
:102be000ebb79f0009003700efac970019017800a0
:102bf0003fb59700110009000285d800a20020000f
:102c0000110009000280d800a1d79f00afd597001e
:102c10000b43b000abd79f002300370010612400a6
:102c20000c58a30001003200006024003fb297005e
:102c3000cfb297005fb39700efb39700cfa897008c
:102c40008100e900050033008703d1000683d3002b
:102c50008582d3000482d300f9ff37006f0262003f
:102c600060427a00a4d79f000f0037003fb0970062
:102c7000cfb097005fb19700efb197003faa9700e0
:102c80000402e900050033008301d1000281d30072
:102c90008180d3000080d300f9ff370067406000d7
:102ca0000043b000a0d79f00bd009000afd29700b6
:102cb0000500fb000168a300070032000e01780048
:102cc000800078000d007800d5fc07000000e000cf
:102cd00005003a00050037008d0078008dfc0700e4
:102ce000e10f4000010032000e07e8004fab9700f3
:102cf00064035300c6af9f00bfab9700e38353004c
:102d0000b7af9f006fac970068045400e8af9f0016
:102d1000afb497000900e00065ff3a000c38a3004b
:102d2000160032007fad97000a00e0001300340067
:102d30000a0478003d0090000068a30007003200fc
:102d40000e017800010220000d007800b4fc07009d
:102d50000000e00006003a00060037008d00780011
:102d6000000220006bfc0700e10f40000100320070
:102d70000e07e8000804e900eeff3a00dfad970017
:102d80001b407800a0d79f000004e000b7fc3a0089
:102d90000e0078004f0778004f06be004f05be00ba
:102da0004f04be002f02b100000006000200fa002e
:102db000889fbe00a0ff9f000104780038009000ab
:102dc0000068a30033003a00e200600005003a000a
:102dd0000003b30030049800110498000080eb0059
:102de0002e003700d80490000900e00006003a00e9
:102df00012002000e680570048009000a6f7070068
:102e00001904980023003700a80090000100e0009a
:102e100008003a009173240021049800010c780006
:102e20002100200051049800110498000030a000f7
:102e30003004980018019000a8009000480090000d
:102e400095f70700280090008080eb00110498009f
:102e5000aff8970001487800000ce8002ff89700c1
:102e6000ea4f50000b003a00380090000088a300a1
:102e70000800320018019000a8009000480090005f
:102e800085f707000000eb0010049800a8009000f0
:102e9000010c7800aff897000100fb004f04be0062
:102ea0000080fa000000060000c0da000000060002
:102eb0006022b800060220000000d0008180d2000d
:102ec0000482d2008582d2000000a00002025200db
:102ed00083825a00030031000202420083824a00ca
:102ee0000000a1000603e900f3ff3a00000006001d
:102ef000020ab900001bb9000200b80081004200bc
:102f00008100430000000600889fbe008a9fbe002b
:102f100030044200b0844a0030054b0090854b00dd
:102f20006000b1000898be000a90be000440e100b5
:102f300005c8e10006d0e10007d8e1000200310039
:102f4000680040001008e8004f05be004f04be00b6
:102f500000000600889fbe008a9fbe003004be00ad
:102f60002005be000418540005985c0006185d009a
:102f700007985d00110020000440e10005c8e10051
:102f800006d0e10007d8e100010039008000eb0025
:102f9000108810004f05be004f04be000000060060
:102fa0001200fa00889fbe008a9fbe008c9fbe0060
:102fb000e0b79f00f1b79f0082bf9f0093bf9f00c3
:102fc0000605be000404be000000eb00d0b79f0061
:102fd000c0b79f00b0b79f00a0b79f0090b79f00f9
:102fe0000006eb005fb19700cfb09700820141006f
:102ff0003fb097000200e00004003d0037000700ea
:103000007e805700c0ff0700030037003300070031
:103010007e805700cfff0700dfb697000d00e0006d
:103020000c0035006fb29700ffb297000fbb9700fe
:103030009fbb970010002000010020006011b80025
:1030400000027200818272000203730083837300a6
:103050001b0007000c06e80001042000810f560049
:10306000e0ff3a000d00e00004003d000802be0051
:103070000a03be007e805700a3ff07005fa89700e9
:103080000000e00005003a001fb29700afb29700c1
:103090003fb39700cfb39700090007006fb09700c8
:1030a000ffb097000fb997009fb997004f06be0079
:1030b0004f05be004f04be000080fa00000006006d
:1030c0000100070000000600a4b79f00b5b79f00ed
:1030d000c6b79f00d7b79f00000006004f09de006b
:1030e00082817100b3b79f004f01de0081804000f4
:1030f00082807000a1b79f008fb097004f09de005b
:10310000000040000200700090b79f007fa8970069
:103110004f01de00818040008280700081b79f00f7
:103120000d0007004f3ade00000040000400700070
:10313000f0af9f00080007000402420085824a00a9
:1031400006034b0087834b00dfff07000802be0029
:103150000a03be00000006002fb29700bfb297001e
:103160004fb39700dfb3970000000600881f780078
:1031700018002000881f780089ff07008f87e9006a
:103180004f04780000000600801feb0084ff07005a
:103190008f87e90000000600889fbe008a9fbe005e
:1031a000e00f5000e08f5800e00f5900e08f590009
:1031b0000c003d006044b8006055b80000005400a9
:1031c00081805c0002015d0083815d0018002000a9
:1031d0001500070008003d00180007000004eb0080
:1031e000050037000004eb000f00070002003d005f
:1031f0001200070018002000dcff07000800e000b4
:10320000060032006022b8006033b80000005200af
:1032100081805a0002015b0083815b004f05be0084
:103220004f04be0000000600e00f5200e08f5a007d
:10323000e00f5b00e08f5b00000006006044b80018
:103240006055b8000402540085825c0006035d00ee
:1032500087835d0000000600889fbe008a9fbe0035
:103260008c1f7800e00f5000e08f5800e00f5900ed
:10327000e08f59000d003d006044b8006055b80073
:103280000000540081805c0002015d0083815d00cc
:103290001c0020000820e10009a8e1000ab0e100bc
:1032a0000bb8e1000d003d00080037000006eb0000
:1032b000e00f5200e08f5a00e00f5b00e08f5b00f0
:1032c00006003d006044b8006055b8000402540098
:1032d00085825c0006035d0087835d00aaff07000e
:1032e0000c00e000060032006022b8006033b80035
:1032f0000000520081805a0002015b0083815b0064
:103300004f0678004f05be004f04be0000000600c7
:10331000889fbe008a9fbe008c1f78000006eb00cd
:10332000e00f5000e08f5800e00f5900e08f590087
:1033300007003d006044b8006055b800000054002c
:1033400081805c0002015d0083815d001c00200023
:10335000e00f5200e08f5a00e00f5b00e08f5b004f
:1033600007003d006044b8006055b80004025400f6
:1033700085825c0006035d0087835d000c00a2006f
:103380000c0007000c00e000060032006022b800cc
:103390006033b8000000520081805a0002015b00d7
:1033a00083815b004f0678004f05be004f04be00ce
:1033b00000000600889fbe008a9fbe008c9fbe0052
:1033c0000404b8000506b8008904460060854e0074
:1033d0000606b8000a054600e0854e000706b8005c
:1033e0008b054600040eb800890446000a854e008d
:1033f000e0854d00050eb8000a0546008b854e009d
:10340000060eb8008b0546000416b8000a054600f3
:103410008b854e000516b8008b054600041eb800cb
:103420008b0546000800be000a01be004f06be0024
:0c3430004f05be004f04be000000060067
:020000040000fa
:10343c000a250000642000002564000020250000ff
:10344c00642000002564000020250000642000009a
:10345c00256400000a0000000a4900003243000005
:10346c0020520000656100006420000054650000db
:10347c0073740000202c0000204d000050550000fb
:10348c00363000003530000020410000646400003c
:10349c0072650000737300003a2000003078000061
:1034ac0025780000000a000045720000726f0000d1
:1034bc00723a0000204900003243000020690000ed
:1034cc00732000006e6f000074200000636f00001a
:1034dc007272000065630000746c000079200000bb
:1034ec007365000074200000757000002e00000051
:1034fc000a530000656e0000736f0000722000001c
:10350c006973000020770000616b000065640000a7
:10351c0020750000702100000000000066660000ad
:10352c00664000009a990000993e000000000000df
:10353c00804000000000000014420000b6f80000bb
:10354c00be3200008eef00001eb70000b3ce0000ac
:0c355c00303a000021710000013d000029
:020000040000fa
:103568000e00fa00889fbe0000047800028fbe009b
:1035780024079800350798004107980056079800d7
:10358800670798003eb99700ceb997005e00900093
:10359800ee009000edf50700e0408800f14088005b
:1035a8005e019000ee0190003eb89700ceb89700fb
:1035b800e5f507000041880011418800204280009d
:1035c800e20f500009013200e20f500005003e00f2
:1035d8000000e00008003200e10f500088003200cf
:1035e80077023700e30f50007a013200e40f5000f1
:1035f800f201320072023700e0408000f1408000a2
:1036080019c0b30002002800d3462400d3f60700ef
:103618000000e000010034008044eb000904e000f1
:103628000300320020002000204288006402370096
:103638000000200001102400809fbe00f626210013
:1036480037a023006466260065fe23002e01900043
:10365800be0190001e00be0018070700e48757004f
:103668000040880011408800004080001140800020
:103678001e01be007b0707004040880051408800bb
:103688004440800055408000304280004142800024
:103698000001be000400be006ef60700604088000e
:1036a800714088006440800075408000504280006e
:1036b8006142800019c0b3000001be000400be00d2
:1036c800a8f607000000e00001003d008044eb0080
:1036d8000904e00005003200504280006142800089
:1036e8006040880071408800140037005042800014
:1036f800614280000002be0005f0a2006040800028
:103708007140800019c0b3000001be000400be0073
:1037180094f607000000e00001003d008044eb0043
:103728000904e00005003200504280006142800038
:1037380001f0a2006040880071408800604080006d
:1037480071408000a4408000b54080000001be00a8
:103758000400be00dd070700804088009140880013
:103768008040800091408000a0408800b1408800df
:10377800404080005140800019c0b3006011b8007b
:1037880076f607000000e000010034008044eb00fa
:103798000904e0000500320080408000914080006c
:1037a80001f0a200fc0b07000d003700404080002c
:1037b8005140800019c0b3006011b80069f60700d5
:1037c8000000e00001003c008044eb000904e00038
:1037d800030032008040800091408000e80b070021
:1037e800c0408000d14080000200200003f8230080
:1037f80056f50700c0408800d1408800f001370026
:1038080019c0b30002002000433024005e0090007d
:10381800ee00900051f607000000e00001003500be
:103828008044eb000904e00003003200200020007f
:1038380020428800e201370000002000011a24001d
:10384800809fbe00f626210037a8230094c22500d9
:10385800f5d823002e019000be0190001e00be0086
:1038680096060700e487570000408800114088004a
:1038780000408000114080001e01be00f9060700cc
:1038880040408800514088004440800055408000f6
:1038980030428000414280000001be000400be00aa
:1038a800ecf50700604088007140880064408000a3
:1038b80075408000504280006142800019c0b3000a
:1038c8000001be000400be0026f607000000e0006c
:1038d80001003d008044eb000904e00005003200cf
:1038e800504280006142800060408800714088003a
:1038f8001400370050428000614280000002be0080
:1039080005f0a200604080007140800019c0b3003b
:103918000001be000400be0012f607000000e0002f
:1039280001003d008044eb000904e000050032007e
:10393800504280006142800001f0a200604088008f
:10394800714088006040800071408000a440800081
:10395800b54080000001be000400be005b07070000
:10396800804088009140880080408000914080001d
:10397800a0408800b140880040408000514080004d
:1039880019c0b3006011b800f4f507000000e000aa
:10399800010035008044eb000904e0000500320016
:1039a800804080009140800001f0a2007a0b07005f
:1039b80083013700404080005140800019c0b300a7
:1039c8006011b800e7f507000000e00001003c00c6
:1039d8008044eb000904e00072013200804080005e
:1039e80091408000660b07007501370019c0b300cd
:1039f80002002000032224001e00be00d9f50700a3
:103a08000000e00001003d008044eb000904e000f4
:103a1800030032003000200020428800680137008f
:103a28000000200081242400809fbe00a6702d0085
:103a380037ba2300f4282c0055e723002e01900004
:103a4800be0190001e00be001c060700e487570058
:103a5800004088001140880000408000114080002c
:103a68001e01be007f0607004040880051408800c4
:103a78004440800055408000304280004142800030
:103a88000001be000400be0072f507006040880017
:103a9800714088006440800075408000704280005a
:103aa8008142800019c0b3000001be000400be00be
:103ab800acf507000000e00001003d008044eb0089
:103ac8000904e00005003200704280008142800055
:103ad8006040880071408800140037007042800000
:103ae800814280000002be0005f0a2006040800014
:103af8007140800019c0b3000001be000400be0080
:103b080098f507000000e00001003d008044eb004c
:103b18000904e00005003200704280008142800004
:103b280001f0a20060408800714088006040800079
:103b380071408000a4408000b54080000001be00b4
:103b48000400be00e106070080408800914088001c
:103b58008040800091408000a0408800b1408800eb
:103b6800404080005140800019c0b3006011b80087
:103b78007af507000000e000010035008044eb0002
:103b88000904e00005003200804080009140800078
:103b980001f0a200000b0700090137004040800037
:103ba8005140800019c0b3006011b8006df50700de
:103bb8000000e00001003c008044eb000904e00044
:103bc800fa0032008040800091408000ec0a070033
:103bd800fb00370019c0b30002002000030a2400cc
:103be8001e00be005df507000000e0000100340083
:103bf8008044eb000904e00003003200400020008c
:103c080020428800ee00370000002000010c24004c
:103c1800809fbe0066ba290047bc2300f4282c0008
:103c280055e723002e019000be0190001e00be0043
:103c3800a2050700e487570000408800114088006b
:103c480000408000114080001e01be0005060700ec
:103c58004040880051408800444080005540800022
:103c680030428000414280000001be000400be00d6
:103c7800f8f40700604088007140880064408000c4
:103c88007540800090428000a142800019c0b300b6
:103c98000001be000400be0032f507000000e0008d
:103ca80001003d008044eb000904e00005003200fb
:103cb80090428000a14280006040880071408800e6
:103cc8001400370090428000a14280000002be002c
:103cd80005f0a200604080007140800019c0b30068
:103ce8000001be000400be001ef507000000e00051
:103cf80001003d008044eb000904e00005003200ab
:103d080090428000a142800001f0a200604088003b
:103d1800714088006040800071408000a4408000ad
:103d2800b54080000001be000400be006706070021
:103d38008040880091408800804080009140800049
:103d4800a0408800b1408800404080005140800079
:103d580019c0b3006011b80000f507000000e000ca
:103d6800010035008044eb000904e0000500320042
:103d7800804080009140800001f0a200860a070080
:103d88008f003700404080005140800019c0b300c8
:103d98006011b800f3f407000000e00001003c00e7
:103da8008044eb000904e00082003200804080007b
:103db80091408000720a070081003700e0408000cf
:103dc800f140800019c0b30002002000a34724007e
:103dd800e4f407000000e00001003d008044eb002f
:103de8000904e000020032004428ef0074003700a4
:103df8000000200001102400809fbe00a6702d0046
:103e080037ba23006466260065ee23002e01900071
:103e1800be0190001e00be0028050700e487570079
:103e28000040880011408800004080001140800058
:103e38001e01be008b0507004040880051408800e5
:103e4800444080005540800030428000414280005c
:103e58000001be000400be007ef407006040880038
:103e680071408800644080007540800050428000a6
:103e78006142800019c0b3000001be000400be000a
:103e8800b8f407000000e00001003d008044eb00aa
:103e98000904e000050032005042800061428000c1
:103ea800604088007140880014003700504280004c
:103eb800614280000002be0005f0a2006040800060
:103ec8007140800019c0b3000001be000400be00ac
:103ed800a4f407000000e00001003d008044eb006e
:103ee8000904e00005003200504280006142800071
:103ef80001f0a200604088007140880060408000a6
:103f080071408000a4408000b54080000001be00e0
:103f18000400be00ed05070080408800914088003d
:103f28008040800091408000a0408800b140880017
:103f3800404080005140800019c0b3006011b800b3
:103f480086f407000000e000010034008044eb0024
:103f58000904e000050032008040800091408000a4
:103f680001f0a2000c0a070015003700404080004d
:103f78005140800019c0b3006011b80079f40700ff
:103f88000000e00001003c008044eb000904e00070
:103f98000a0032008040800091408000f809070044
:103fa800070037000000000005003700000000008f
:103fb8000300370000000000010037000000000087
:103fc8002042800060398a00004080001140800053
:103fd80070398a0081398a008040800091408000d1
:103fe80090398a00a1398a00c072240088007800bc
:103ff800b0187800a0107800e48040006400400009
:10400800b0187800a0107800e480400064004000f8
:10401800900878008180e8000080e80008007800b7
:104028004f04be000080fa00000006000e00fa00ef
:10403800881f780000047800c0822000b1032000a7
:1040480021009800c0822000e100200011009800a3
:1040580020862000c18220001100980020862000c0
:104068002100200001087800040037002086200085
:10407800b00090002086200001000100208620006a
:10408800100078000000e000f8ff3a00f0368200e7
:10409800c800dd000037820001007000000f7800c2
:1040a80010378200c800dd00203782000100700050
:1040b8001007980030378200c800dd0040378200c2
:1040c800010070002007980050378200c800dd000a
:1040d8006037820001007000300798007037820056
:1040e800c800dd008037820001007000400798009a
:1040f80090378200c800dd00a03782000100700000
:1041080050079800b0378200c800dd00c037820031
:104118000100700060079800060009003e1c780046
:10412800e800b100ee00b100080078004f04780004
:104138000080fa00000006000400fa00c082200097
:10414800b103200021009800c08220002100200037
:104158001100980020862000c182200011009800dc
:104168002086200021002000010878000000eb00d4
:10417800000f78000800370020862000b00090006b
:1041880020862000010001001e0fe8001e007800b4
:10419800f00f500005003c00208620001000780039
:1041a8000000e000f4ff3a000100370000000000c2
:1041b800f0368200c800dd00003782000100700080
:1041c800100798001e0090000080fa00000006000a
:1041d8000e00fa00000f78001107980022079800d7
:1041e8003307980044079800550798006607980019
:1041f800ee0290005e029000ce0190002e01900029
:104208009e0090001e007800851f7800841f7800ab
:10421800831f7800821f7800811f7800801f780034
:10422800e0a12900801f780031f70700ee875700ca
:104238000080fa00000006002200fa00881f7800bb
:1042480000047800a0002000100798000000eb0090
:10425800100f98000000eb00200f98000000eb0002
:10426800100f98000000eb00200f98000000eb00f2
:10427800300f98000000eb00500f98000000eb0092
:10428800600f98000000eb00700f98000000eb0032
:10429800000f78003f0037006400470063ff070005
:1042a8009e089000011798002e0190001e009000b3
:1042b80080017800110009000301d8008e109000d9
:1042c80000804000100f9800ae0990000317980076
:1042d8003e0190001e009000800178001100090046
:1042e8000301d8008e10900000804000200f980035
:1042f800be099000031798004e0190001e00900020
:1043080080017800110009000301d8008e10900088
:1043180000804000300f9800de09900003179800d5
:104328006e0190001e0090008001780011000900c5
:104338000301d8008e10900000804000500f9800b4
:10434800ee099000031798007e0190001e0090006f
:1043580080017800110009000301d8008e10900038
:1043680000804000600f9800fe0990000317980035
:104378000e0990001e0090008001780011000900cd
:104388000301d8008e10900000804000700f980044
:104398001e0fe8001e0090009e007800808f5000dd
:1043a800bdff3500f201470006000900331c780004
:1043b800e800b100080078004f0478000080fa0097
:1043c800000006000200fa000000eb00000f780071
:1043d8000d0037001e00780080004000a06c24000b
:1043e800008040008000eb00010878001e00780083
:1043f80080004000e06d2400008040008000eb0059
:10440800010878001e0fe8001e007800e90f500030
:10441800f0ff340040822000a16c240001087800dd
:1044280040822000110020001100980040822000e6
:10443800b10620002100980040822000810620005b
:1044480031009800c0822000e16d24000108780046
:10445800c08220001100200011009800c0822000b6
:104468005107200021009800c0822000810620000a
:104478003100980010002000a0418800208620000c
:10448800c182200011009800208620002100200011
:10449800010878000400370020862000b000900052
:1044a80020862000010001002086200010007800ee
:1044b8000000e000f8ff3a00f13682008006200094
:1044c800808f500007003a00f0368200801f780085
:1044d80020a32900801f780085f60700e48757008d
:1044e8000200370090a5290077f607000000eb00ce
:1044f80050368a0020862000418220001100980052
:1045080020862000110020000108780004003700f0
:1045180020862000b00090002086200001000100c5
:1045280020862000100078000000e000f8ff3a0024
:10453800e0a7290064f607000080fa0000000600e2
:104548005200fa00889fbe008a9fbe008c1f780028
:104558000006780021279800322798004327980002
:10456800542798006527980076279800072f980009
:10457800d0ee220051262400008fbe00f0a72600ae
:10458800c1f723002007980031079800ee2090001b
:104598002eb8970000805000cf80de002ff3070070
:1045a8000002be0050438000614380000001be004d
:1045b8000400be00a7f20700200f9800310f9800f2
:1045c800fe2090003eb8970000805000cf80de00ab
:1045d80022f307000002be005043800061438000c0
:1045e8000001be000400be009af20700400f9800c8
:1045f800510f98008e2890004eb897000080500008
:10460800cf80de0015f307000002be005043800093
:10461800614380000001be000400be008df2070067
:10462800600f9800710f98002e209000cf80de0058
:104638000af3070000179800111798003e20900011
:10464800cf80de0005f30700201798003117980087
:104658004e209000cf80de0000f30700401798003e
:10466800511798000e1090009e1090000004be0094
:1046780009f0a2002e109000be1090000001be00ac
:104688004ef307000005be004e109000de109000ab
:104698000001be0049f307000001be000a00be0089
:1046a800aaf107005cf407000001be000800be0084
:1046b80068f2070002f207001e01be003ff3070080
:1046c800001f9800111f98002e149000be1490002f
:1046d8000e1090009e1090000001be0037f30700f6
:1046e8000005be004e109000de1090000001be00d4
:1046f80032f307000001be000a00be0093f1070074
:1047080045f407000001be000800be0051f2070092
:10471800ebf107001e01be0028f3070060179800a0
:10472800711798006000b800201f9800311f98008a
:104738002e089000be0890006ea99700fea9970069
:104748001ef30700024022004397240041f20700ad
:104758000002be000eb097009eb097000001be0098
:104768000400be0079f10700401f9800511f98000f
:104778004e089000de0890006ea99700fea99700e9
:104788000ef30700024022004397240031f207008d
:104798000002be002eb09700beb097000001be0018
:1047a8000400be0069f10700601f9800711f98009f
:1047b8006e089000fe0890006ea99700fea9970069
:1047c800fef20700024022004397240021f207006e
:1047d8000002be004eb09700deb097000001be0098
:1047e8000400be0059f1070000279800112798001f
:1047f8004e189000de1890002e019000be01900027
:10480800eef207000004be002e019000be019000e9
:104818000000200001f823004bf107000002be0051
:104828006e109000fe1090000001be000400be0053
:10483800e2f207000001be000800be0043f10700d5
:1048480040079800510798006e189000fe189000d5
:104858002e019000be019000d8f207000004be00af
:104868002e019000be0190000000200001f82300f6
:1048780035f107000002be000e1890009e18900047
:104888000001be000400be00ccf207000001be001b
:104898000800be002df10700600798007107980016
:1048a8000e2090009e209000000f9800110f980095
:1048b800680047008c007800b0187800a0107800d5
:1048c800e480400064004000b0187800a010780030
:1048d800e480400064004000b0187800a010780020
:1048e800e4804000640040000c0078004f06780027
:1048f8004f05be004f04be000080fa00000006000d
:104908002000fa00200f9800320f9800430f9800fb
:10491800510f9800640f9800750f98006000b80058
:10492800008fbe006000b80020079800310798008b
:104938006000b80040079800510798000004a800dc
:104948002e08900000004000000040008000780021
:104958000044200000804000600798002e08900066
:104968004280de0000004000800078000042200005
:1049780000804000700798002e0890004380de00f9
:104988000000400080007800804120000080400046
:10499800000f980040412000100f98005e0890001a
:1049a800e10f500049003a003e099000ce099000fe
:1049b800f0ff2f00010020000202780003017800b8
:1049c80080017800010078000302620000006100a5
:1049d8008000eb00c000dd00000020000001be00e8
:1049e8006120b800000171008181710022079800e0
:1049f800330798003e089000ce0890004088de00fb
:104a0800cf80de000001be00300020000100200041
:104a18000202780003017800800178000100780024
:104a280003026200000061008000eb00c000dd00ae
:104a3800000020000001be006120b80000017100e4
:104a48008181710042079800530798003e08900042
:104a5800ce0890004288de00cf80de000001be0054
:104a6800f07f200001002000020278008301780016
:104a780000017800010078000201620000806100f6
:104a88008000eb00c000dd0000002000008fbe00a9
:104a98006110b8001e1f70001e9770001e0078007d
:104aa800c500dd004e00900000804000e800400096
:104ab8006e009000010878006e0090000080e80009
:104ac800ae00900001087800190037003e099000f8
:104ad800ce099000f07f200001002000020278003b
:104ae800830178000001780001007800020162006b
:104af800008061008000eb00c000dd0000002000a5
:104b0800008fbe006110b8001e1f70001e97700055
:104b18001e007800c500dd006e00900001087800d6
:104b28006e0090000080e8008000eb00010878002b
:104b38007e009000900078002e08900063006000ce
:104b48004200dd00f20020000010dd000080ea00d5
:104b5800808060007e009000010878002e08900098
:104b6800630060004200dd00ee0890008008dd0070
:104b78007e00900010007800810070007e00900098
:104b8800010878000e089000900078002e08900028
:104b98006700600000004000320020000010dd00c7
:104ba8000080ea00808060000e089000010878000c
:104bb8002e0890006700600000004000fe0890008a
:104bc8008008dd000e089000100078008100700059
:104bd8000e08900001087800110020002e089000af
:104be8000008dd00800078001e08900010007800a2
:104bf800810070001e089000010878000004a900d8
:104c08000080fa00000006001800fa0070079800fb
:104c1800020f9800130f9800210f9800340f980086
:104c28006000b800008fbe006000b8002007980040
:104c3800310798006000b8004007980051079800b5
:104c48000004a8007e009000000040000000400022
:104c58008000780000432000008040006007980032
:104c68003e089000e10f500053003a000e099000f2
:104c78009e099000f0ff2f0001002000020278003a
:104c880003017800800178000100780003026200c7
:104c9800000061008000eb00c000dd000000200083
:104ca8000001be006120b80000017100818171001f
:104cb80022079800330798000e0890009e0890007d
:104cc8004088de00cf80de000001be0030002000fa
:104cd80001002000020278000301780080017800ba
:104ce8000100780003026200000061008000eb0010
:104cf800c000dd00000020000001be006120b800f7
:104d080000017100818171004207980053079800e3
:104d18000e0890009e0890004288de00cf80de00da
:104d28000001be00f07f2000010020000202780090
:104d38008301780000017800010078000201620018
:104d4800008061008000eb00c000dd000000200052
:104d5800008fbe006110b8001e1f70001e97700003
:104d68002e089000e10f500008003a001e0078005d
:104d7800c500dd004e00900000804000e8004000c3
:104d88006e00900001087800060037001e007800c9
:104d9800c500dd004e009000808040006e0090004d
:104da800010878006e0090000080e800ae009000d6
:104db80001087800220037000e0990009e09900033
:104dc800f07f2000010020000202780083017800b3
:104dd8000001780001007800020162000080610093
:104de8008000eb00c000dd0000002000008fbe0046
:104df8006110b8001e1f70001e9770002e089000ea
:104e0800e10f500006003a001e0078004500dd0062
:104e1800e80040006e0090000108780004003700a8
:104e28001e007800c500dd006e00900001087800c3
:104e38006e0090000080e8008000eb000108780018
:104e48000004a9000080fa00000006002200fa0011
:104e5800400f9800520f9800630f9800710f980048
:104e6800041798006000b800008fbe006000b8000a
:104e780020079800310798006000b80040079800a4
:104e8800510798006000b800600798007107980003
:104e98006000b800000f9800110f98006000b8007b
:104ea800200f9800310f98007e0890000000e00065
:104eb800460032005e099000ee099000f0032000e1
:104ec80001002000020278000301780080017800c8
:104ed8000100780003026200000061008000eb001e
:104ee800c000dd00000020000001be006120b80005
:104ef8000001710081817100020f9800130f980062
:104f08005e089000ee0890004a09dd004600de00c9
:104f180000007100c688de000001be00f0ff20001e
:104f28000100200002027800030178008001780067
:104f38000100780003026200000061008000eb00bd
:104f4800c000dd00000020000001be006120b800a4
:104f58000001710081817100220f9800330f9800c1
:104f68005e089000ee0890004288de00cf80de00e8
:104f78000001be00f07f200001002000020278003e
:104f880003017800800178000100780003026200c4
:104f9800000061008000eb00c000dd000000200080
:104fa8000001be006120b80000017100818171001c
:104fb80062079800730798002e099000be099000b8
:104fc8002207980033079800130037005e09900005
:104fd800ee099000f07f2000010020000202780016
:104fe8000301780080017800010078000302620064
:104ff800000061008000eb00c000dd000000200020
:105008000001be006120b8000001710081817100bb
:1050180062079800730798000e109000e10f500087
:105028001a003a006e009000fe0090004209dd0070
:10503800ce01de00830171004201dd007e08900090
:105048008000eb0000007100818071000001be004b
:105058000210a000028fbe000e0890009e0890006b
:105068004a09dd00c601de00830171004a01dd0046
:1050780000202000010020000000710081807100e4
:105088004007980051079800120037006e00900002
:10509800fe0090004209dd00ce01de0083017100b0
:1050a8004201dd007e0890008000eb00001f7100c7
:1050b800019771000e0990009e0990004a18dd00c2
:1050c800c610de00810070004a10dd00400798001d
:1050d800510798007e0890000000e00009003200a7
:1050e8001e007800800078000110a0004e08900093
:1050f8004401dd0000402400000041000108780060
:10510800060037009e0078004e0890004401dd003c
:10511800004024000000410001087800ae00900023
:105128004e0890004401dd002040240000004100aa
:1051380001087800ce0090004e0890004401dd0080
:105148004040240000004100010878000080fa0077
:10515800000006000400fa00100798000004a800e8
:1051680040412000000f78001e0078009000780071
:10517800120020001e0090000010dd000080ea00f0
:10518800808060001e007800010878000004a900f3
:105198000080fa00000006000400fa00008fbe003c
:1051a80002002800e33d24001e00be0083f0070033
:1051b80002002000031a2400e4ee07000080fa0031
:1051c800000006000400fa00008fbe000200200064
:1051d800433024001e00be0078f0070002002000c3
:1051e80083292400d8ee07000080fa00000006009a
:1051f8001400fa00889fbe008a9fbe00000f980026
:10520800110f980041aa290007000900311f7800f2
:105218000e01b1001e04be00020020000304240099
:105228000e0890009e08900098f007000001be004c
:105238000800be0061f007000004be002e059000c3
:10524800be05900002002000030024000e08900014
:105258009e0890008df007000001be000a00be0005
:1052680056f007000001be000800be00b7ee0700b8
:105278000004be004e009000de0090000e09900071
:105288009e0990004df007000001be000800be0016
:10529800aeee07000002be006e009000fe00900017
:1052a8000001be000400be00a8ee07004f05be00c6
:1052b8004f04be000080fa00000006001000fa004b
:1052c800889fbe00008fbe00220798003307980011
:1052d80044079800550798006607980077079800d4
:1052e8003eb99700ceb997001e00be0096ee0700a3
:1052f8004e019000de01900030f007000004be006f
:105308002e019000be0190006e009000fe009000fb
:105318002af007000001be000800be008bee07005f
:1053280001f0a2004f04be000080fa000000060051
:105338000800fa00008fbe00220798003307980083
:105348002e019000be0190001e00be0041ef070034
:105358000080fa00000006001400fa00889fbe00d2
:105368006007980071079800020f9800130f9800c3
:105378006000b800008fbe00a0d48400b1d48400bf
:1053880018c0b3000001be000e0890009e089000ef
:1053980074ef07000000e00001003c000044eb004f
:1053a8000804e0000f003200e0d48400f1d4840047
:1053b8000004be0009f0a200a0d48400b1d4840087
:1053c8000001be000e0890009e0890005eee0700e7
:1053d8000001be000800be00f8ef0700008fbe0005
:1053e800020037006000b800008fbe001e01be003a
:1053f8006e009000fe00900053ee07002007980012
:105408003107980002002000633124002e0090002c
:10541800be0090000fef07006266260063f62300c7
:105428000cef070002002000a3472400e3ef070069
:105438000002be0000d5840011d584000001be0022
:105448000400be0003ef07004007980051079800ca
:105458004e009000de0090004f04be000080fa006d
:10546800000006001000fa00400798005107980055
:1054780062079800730798004e019000de019000c3
:10548800028fbe0002002000633124001e00be000f
:10549800f0ee07006266260063f62300edee0700d3
:1054a80002002000a3472400c4ef07000002be004a
:1054b80000d5840011d584000001be000400be00a0
:1054c800e4ee070020079800310798002e009000ae
:1054d800be0090000080fa00000006001000fa00ec
:1054e800881f780020079800310798004207980025
:1054f8005307980064079800750798004e019000bc
:10550800de0190002e009000be0090000eee070015
:105518006e019000fe019000a8ef07000200200035
:1055280003002400cbee0700008fbe0018c0b300b4
:1055380002002000030224001e00be0009ef07003d
:105548000000e00001003c000044eb000804e0001b
:10555800040032000000200001022400008fbe0079
:105568000d00370018c0b3000200200003022c0011
:105578001e00be00f9ee07000000e0000100350043
:105588000044eb000804e0000300320000002000a3
:1055980001022c00008fbe0002002000030224003c
:1055a8001e00be00e9ed0700008fbe00c0d48400d5
